{
  "contractName": "AppStoreFactory",
  "abi": [
    {
      "constant": false,
      "inputs": [
        {
          "name": "target",
          "type": "address"
        }
      ],
      "name": "destroy",
      "outputs": [],
      "payable": false,
      "stateMutability": "nonpayable",
      "type": "function"
    },
    {
      "constant": false,
      "inputs": [],
      "name": "createEventStore",
      "outputs": [
        {
          "name": "",
          "type": "address"
        }
      ],
      "payable": false,
      "stateMutability": "nonpayable",
      "type": "function"
    },
    {
      "constant": true,
      "inputs": [
        {
          "name": "",
          "type": "uint256"
        }
      ],
      "name": "eventStores",
      "outputs": [
        {
          "name": "",
          "type": "address"
        }
      ],
      "payable": false,
      "stateMutability": "view",
      "type": "function"
    },
    {
      "constant": true,
      "inputs": [],
      "name": "owner",
      "outputs": [
        {
          "name": "",
          "type": "address"
        }
      ],
      "payable": false,
      "stateMutability": "view",
      "type": "function"
    },
    {
      "constant": true,
      "inputs": [],
      "name": "getEventStores",
      "outputs": [
        {
          "name": "",
          "type": "address[]"
        }
      ],
      "payable": false,
      "stateMutability": "view",
      "type": "function"
    },
    {
      "payable": true,
      "stateMutability": "payable",
      "type": "fallback"
    }
  ],
  "bytecode": "0x608060405233600160006101000a81548173ffffffffffffffffffffffffffffffffffffffff021916908373ffffffffffffffffffffffffffffffffffffffff160217905550610961806100546000396000f30060806040526004361061006c576000357c0100000000000000000000000000000000000000000000000000000000900463ffffffff168062f55d9d14610071578063468d427e146100b457806349d3ab4e1461010b5780638da5cb5b146101785780638dc668d7146101cf575b600080fd5b34801561007d57600080fd5b506100b2600480360381019080803573ffffffffffffffffffffffffffffffffffffffff16906020019092919050505061023b565b005b3480156100c057600080fd5b506100c96102b0565b604051808273ffffffffffffffffffffffffffffffffffffffff1673ffffffffffffffffffffffffffffffffffffffff16815260200191505060405180910390f35b34801561011757600080fd5b5061013660048036038101908080359060200190929190505050610347565b604051808273ffffffffffffffffffffffffffffffffffffffff1673ffffffffffffffffffffffffffffffffffffffff16815260200191505060405180910390f35b34801561018457600080fd5b5061018d610385565b604051808273ffffffffffffffffffffffffffffffffffffffff1673ffffffffffffffffffffffffffffffffffffffff16815260200191505060405180910390f35b3480156101db57600080fd5b506101e46103ab565b6040518080602001828103825283818151815260200191508051906020019060200280838360005b8381101561022757808201518184015260208101905061020c565b505050509050019250505060405180910390f35b600160009054906101000a900473ffffffffffffffffffffffffffffffffffffffff1673ffffffffffffffffffffffffffffffffffffffff163373ffffffffffffffffffffffffffffffffffffffff1614151561029757600080fd5b8073ffffffffffffffffffffffffffffffffffffffff16ff5b6000806102bb610439565b604051809103906000f0801580156102d7573d6000803e3d6000fd5b50905060008190806001815401808255809150509060018203906000526020600020016000909192909190916101000a81548173ffffffffffffffffffffffffffffffffffffffff021916908373ffffffffffffffffffffffffffffffffffffffff160217905550508091505090565b60008181548110151561035657fe5b906000526020600020016000915054906101000a900473ffffffffffffffffffffffffffffffffffffffff1681565b600160009054906101000a900473ffffffffffffffffffffffffffffffffffffffff1681565b6060600080548060200260200160405190810160405280929190818152602001828054801561042f57602002820191906000526020600020905b8160009054906101000a900473ffffffffffffffffffffffffffffffffffffffff1673ffffffffffffffffffffffffffffffffffffffff16815260200190600101908083116103e5575b5050505050905090565b6040516104ec8061044a833901905600608060405234801561001057600080fd5b5032600160006101000a81548173ffffffffffffffffffffffffffffffffffffffff021916908373ffffffffffffffffffffffffffffffffffffffff16021790555061048b806100616000396000f30060806040526004361061006c576000357c0100000000000000000000000000000000000000000000000000000000900463ffffffff168062f55d9d1461007157806306661abd146100b45780638da5cb5b146100df578063e2e52ec114610136578063ed2e5a9714610175575b600080fd5b34801561007d57600080fd5b506100b2600480360381019080803573ffffffffffffffffffffffffffffffffffffffff169060200190929190505050610207565b005b3480156100c057600080fd5b506100c961027c565b6040518082815260200191505060405180910390f35b3480156100eb57600080fd5b506100f461028b565b604051808273ffffffffffffffffffffffffffffffffffffffff1673ffffffffffffffffffffffffffffffffffffffff16815260200191505060405180910390f35b34801561014257600080fd5b50610173600480360381019080803560001916906020019092919080356000191690602001909291905050506102b1565b005b34801561018157600080fd5b506101a06004803603810190808035906020019092919050505061037d565b604051808581526020018473ffffffffffffffffffffffffffffffffffffffff1673ffffffffffffffffffffffffffffffffffffffff1681526020018360001916600019168152602001826000191660001916815260200194505050505060405180910390f35b600160009054906101000a900473ffffffffffffffffffffffffffffffffffffffff1673ffffffffffffffffffffffffffffffffffffffff163373ffffffffffffffffffffffffffffffffffffffff1614151561026357600080fd5b8073ffffffffffffffffffffffffffffffffffffffff16ff5b60008060000180549050905090565b600160009054906101000a900473ffffffffffffffffffffffffffffffffffffffff1681565b73__EventStoreLib_________________________630d93ee9c600084846040518463ffffffff167c01000000000000000000000000000000000000000000000000000000000281526004018084815260200183600019166000191681526020018260001916600019168152602001935050505060206040518083038186803b15801561033d57600080fd5b505af4158015610351573d6000803e3d6000fd5b505050506040513d602081101561036757600080fd5b8101908080519060200190929190505050505050565b60008060008073__EventStoreLib_________________________631b68f0916000876040518363ffffffff167c0100000000000000000000000000000000000000000000000000000000028152600401808381526020018281526020019250505060806040518083038186803b1580156103f757600080fd5b505af415801561040b573d6000803e3d6000fd5b505050506040513d608081101561042157600080fd5b8101908080519060200190929190805190602001909291908051906020019092919080519060200190929190505050935093509350935091935091935600a165627a7a723058200377bef25923b640fb24f02aae53d5fe33769a6b4ecfad4558b957c5422b65f20029a165627a7a723058207a7a2275c43c861016ff90d0826dd8e91e2453586cc404c3ee8a8a412dbab6c60029",
  "source": "pragma solidity ^0.4.19;\n\nimport \"transmute-framework/contracts/EventStoreFactory.sol\";\n\ncontract AppStoreFactory is EventStoreFactory {\n\n   \n}",
  "sourcePath": "/Users/orie/Desktop/oracle-cloud-starter-kit/packages/dapp/contracts/AppStoreFactory.sol",
  "compiler": {
    "name": "solc",
    "version": "0.4.23+commit.124ca40d.Emscripten.clang"
  },
  "schemaVersion": "2.0.0",
  "updatedAt": "2018-09-06T01:09:20.825Z"
}